{
  "contractName": "ArrayManagment",
  "abi": [
    {
      "inputs": [
        {
          "internalType": "uint256",
          "name": "",
          "type": "uint256"
        }
      ],
      "name": "numbers",
      "outputs": [
        {
          "internalType": "uint256",
          "name": "",
          "type": "uint256"
        }
      ],
      "stateMutability": "view",
      "type": "function",
      "constant": true
    },
    {
      "inputs": [
        {
          "internalType": "uint256",
          "name": "_number",
          "type": "uint256"
        }
      ],
      "name": "addNumber",
      "outputs": [],
      "stateMutability": "nonpayable",
      "type": "function"
    },
    {
      "inputs": [
        {
          "internalType": "uint256",
          "name": "_index",
          "type": "uint256"
        }
      ],
      "name": "getElement",
      "outputs": [
        {
          "internalType": "uint256",
          "name": "",
          "type": "uint256"
        }
      ],
      "stateMutability": "view",
      "type": "function",
      "constant": true
    },
    {
      "inputs": [],
      "name": "displayArray",
      "outputs": [
        {
          "internalType": "uint256[]",
          "name": "",
          "type": "uint256[]"
        }
      ],
      "stateMutability": "view",
      "type": "function",
      "constant": true
    },
    {
      "inputs": [],
      "name": "sum",
      "outputs": [
        {
          "internalType": "uint256",
          "name": "",
          "type": "uint256"
        }
      ],
      "stateMutability": "view",
      "type": "function",
      "constant": true
    },
    {
      "inputs": [],
      "name": "clearArray",
      "outputs": [],
      "stateMutability": "nonpayable",
      "type": "function"
    }
  ],
  "bytecode": "0x608060405234801561001057600080fd5b506105e9806100206000396000f3fe608060405234801561001057600080fd5b50600436106100625760003560e01c80633a7d22bc14610067578063853255cc14610097578063bccd33b9146100b5578063d39fa233146100d3578063e80b7ab614610103578063fce680231461010d575b600080fd5b610081600480360381019061007c9190610325565b610129565b60405161008e9190610361565b60405180910390f35b61009f610197565b6040516100ac9190610361565b60405180910390f35b6100bd6101f5565b6040516100ca919061043a565b60405180910390f35b6100ed60048036038101906100e89190610325565b61024d565b6040516100fa9190610361565b60405180910390f35b61010b610271565b005b61012760048036038101906101229190610325565b610280565b005b600080805490508210610171576040517f08c379a0000000000000000000000000000000000000000000000000000000008152600401610168906104b9565b60405180910390fd5b60008281548110610185576101846104d9565b5b90600052602060002001549050919050565b6000806000905060005b6000805490508110156101ed57600081815481106101c2576101c16104d9565b5b9060005260206000200154826101d89190610537565b915080806101e59061056b565b9150506101a1565b508091505090565b6060600080548060200260200160405190810160405280929190818152602001828054801561024357602002820191906000526020600020905b81548152602001906001019080831161022f575b5050505050905090565b6000818154811061025d57600080fd5b906000526020600020016000915090505481565b60008061027e91906102ac565b565b600081908060018154018082558091505060019003906000526020600020016000909190919091505550565b50805460008255906000526020600020908101906102ca91906102cd565b50565b5b808211156102e65760008160009055506001016102ce565b5090565b600080fd5b6000819050919050565b610302816102ef565b811461030d57600080fd5b50565b60008135905061031f816102f9565b92915050565b60006020828403121561033b5761033a6102ea565b5b600061034984828501610310565b91505092915050565b61035b816102ef565b82525050565b60006020820190506103766000830184610352565b92915050565b600081519050919050565b600082825260208201905092915050565b6000819050602082019050919050565b6103b1816102ef565b82525050565b60006103c383836103a8565b60208301905092915050565b6000602082019050919050565b60006103e78261037c565b6103f18185610387565b93506103fc83610398565b8060005b8381101561042d57815161041488826103b7565b975061041f836103cf565b925050600181019050610400565b5085935050505092915050565b6000602082019050818103600083015261045481846103dc565b905092915050565b600082825260208201905092915050565b7f496e646578206e6f742065786973747300000000000000000000000000000000600082015250565b60006104a360108361045c565b91506104ae8261046d565b602082019050919050565b600060208201905081810360008301526104d281610496565b9050919050565b7f4e487b7100000000000000000000000000000000000000000000000000000000600052603260045260246000fd5b7f4e487b7100000000000000000000000000000000000000000000000000000000600052601160045260246000fd5b6000610542826102ef565b915061054d836102ef565b925082820190508082111561056557610564610508565b5b92915050565b6000610576826102ef565b91507fffffffffffffffffffffffffffffffffffffffffffffffffffffffffffffffff82036105a8576105a7610508565b5b60018201905091905056fea2646970667358221220de32b6c6d26ac86562842cd70ad50157b81f8363827f4fed22a4c0f0bd61c85764736f6c63430008130033",
  "immutableReferences": {},
  "source": "// SPDX-License-Identifier: MIT\npragma solidity >=0.4.22 <0.9.0;\n\ncontract ArrayManagment {\n  uint [] public numbers;  \n\n  // constructor() {\n  //   numbers.push(5);\n  //   numbers.push(19);\n  //   numbers.push(1);\n  //   numbers.push(2);\n  // }\n\n  function addNumber(uint _number) public{\n    numbers.push(_number);\n  }\n\n  function getElement(uint _index) public view returns(uint){\n    require(_index < numbers.length, \"Index not exists\");\n    return numbers[_index];\n  }\n\n  function displayArray() public view returns(uint [] memory){\n    return numbers;\n  }\n\n  function sum() public view returns (uint){\n    uint total = 0;\n    for (uint i=0; i < numbers.length; i++){\n      total += numbers[i];\n    }\n    return total;\n  }\n\n  function clearArray() public {\n    delete numbers;\n}\n\n  \n}\n",
  "sourcePath": "D:\\ILIA\\S4\\PROJECTS\\DAPP\\contracts\\ArrayManagment.sol",
  "compiler": {
    "name": "solc",
    "version": "0.8.19+commit.7dd6d404.Emscripten.clang"
  },
  "schemaVersion": "3.4.16",
  "updatedAt": "2026-06-08T22:15:32.861Z",
  "networkType": "ethereum",
  "devdoc": {
    "kind": "dev",
    "methods": {},
    "version": 1
  },
  "userdoc": {
    "kind": "user",
    "methods": {},
    "version": 1
  }
}