{
  "contractName": "Parity",
  "abi": [
    {
      "inputs": [
        {
          "internalType": "uint256",
          "name": "_number",
          "type": "uint256"
        }
      ],
      "name": "isEven",
      "outputs": [
        {
          "internalType": "bool",
          "name": "",
          "type": "bool"
        }
      ],
      "stateMutability": "pure",
      "type": "function",
      "constant": true
    },
    {
      "inputs": [
        {
          "internalType": "uint256",
          "name": "_number",
          "type": "uint256"
        }
      ],
      "name": "isOdd",
      "outputs": [
        {
          "internalType": "bool",
          "name": "",
          "type": "bool"
        }
      ],
      "stateMutability": "pure",
      "type": "function",
      "constant": true
    }
  ],
  "bytecode": "0x608060405234801561001057600080fd5b50610200806100206000396000f3fe608060405234801561001057600080fd5b50600436106100365760003560e01c80632a2e13201461003b578063d8b3a2eb1461006b575b600080fd5b61005560048036038101906100509190610107565b61009b565b604051610062919061014f565b60405180910390f35b61008560048036038101906100809190610107565b6100b3565b604051610092919061014f565b60405180910390f35b6000806002836100ab9190610199565b149050919050565b6000806002836100c39190610199565b14159050919050565b600080fd5b6000819050919050565b6100e4816100d1565b81146100ef57600080fd5b50565b600081359050610101816100db565b92915050565b60006020828403121561011d5761011c6100cc565b5b600061012b848285016100f2565b91505092915050565b60008115159050919050565b61014981610134565b82525050565b60006020820190506101646000830184610140565b92915050565b7f4e487b7100000000000000000000000000000000000000000000000000000000600052601260045260246000fd5b60006101a4826100d1565b91506101af836100d1565b9250826101bf576101be61016a565b5b82820690509291505056fea264697066735822122006117802525a9fac0c07bde1da04c2acda0c70fc1f7ef2f89da9b189a1ee896864736f6c63430008130033",
  "immutableReferences": {},
  "source": "// SPDX-License-Identifier: MIT\npragma solidity >=0.4.22 <0.9.0;\n\ncontract Parity {\n  \n  function isEven(uint _number) public pure returns (bool){\n    return _number % 2 == 0;\n  }\n\n  function isOdd(uint _number) public pure returns (bool){\n    return _number % 2 != 0;\n  }\n  \n}\n",
  "sourcePath": "D:\\ILIA\\S4\\PROJECTS\\DAPP\\contracts\\Parity.sol",
  "compiler": {
    "name": "solc",
    "version": "0.8.19+commit.7dd6d404.Emscripten.clang"
  },
  "schemaVersion": "3.4.16",
  "updatedAt": "2026-06-08T22:15:32.767Z",
  "networkType": "ethereum",
  "devdoc": {
    "kind": "dev",
    "methods": {},
    "version": 1
  },
  "userdoc": {
    "kind": "user",
    "methods": {},
    "version": 1
  }
}