{
  "contractName": "Rectangle",
  "abi": [
    {
      "inputs": [
        {
          "internalType": "uint256",
          "name": "_x",
          "type": "uint256"
        },
        {
          "internalType": "uint256",
          "name": "_y",
          "type": "uint256"
        },
        {
          "internalType": "uint256",
          "name": "_width",
          "type": "uint256"
        },
        {
          "internalType": "uint256",
          "name": "_height",
          "type": "uint256"
        }
      ],
      "stateMutability": "nonpayable",
      "type": "constructor"
    },
    {
      "inputs": [],
      "name": "displayXY",
      "outputs": [
        {
          "internalType": "uint256",
          "name": "",
          "type": "uint256"
        },
        {
          "internalType": "uint256",
          "name": "",
          "type": "uint256"
        }
      ],
      "stateMutability": "view",
      "type": "function",
      "constant": true
    },
    {
      "inputs": [],
      "name": "height",
      "outputs": [
        {
          "internalType": "uint256",
          "name": "",
          "type": "uint256"
        }
      ],
      "stateMutability": "view",
      "type": "function",
      "constant": true
    },
    {
      "inputs": [
        {
          "internalType": "uint256",
          "name": "dx",
          "type": "uint256"
        },
        {
          "internalType": "uint256",
          "name": "dy",
          "type": "uint256"
        }
      ],
      "name": "move",
      "outputs": [],
      "stateMutability": "nonpayable",
      "type": "function"
    },
    {
      "inputs": [],
      "name": "width",
      "outputs": [
        {
          "internalType": "uint256",
          "name": "",
          "type": "uint256"
        }
      ],
      "stateMutability": "view",
      "type": "function",
      "constant": true
    },
    {
      "inputs": [],
      "name": "x",
      "outputs": [
        {
          "internalType": "uint256",
          "name": "",
          "type": "uint256"
        }
      ],
      "stateMutability": "view",
      "type": "function",
      "constant": true
    },
    {
      "inputs": [],
      "name": "y",
      "outputs": [
        {
          "internalType": "uint256",
          "name": "",
          "type": "uint256"
        }
      ],
      "stateMutability": "view",
      "type": "function",
      "constant": true
    },
    {
      "inputs": [],
      "name": "area",
      "outputs": [
        {
          "internalType": "uint256",
          "name": "",
          "type": "uint256"
        }
      ],
      "stateMutability": "view",
      "type": "function",
      "constant": true
    },
    {
      "inputs": [],
      "name": "displayInfo",
      "outputs": [
        {
          "internalType": "string",
          "name": "",
          "type": "string"
        }
      ],
      "stateMutability": "pure",
      "type": "function",
      "constant": true
    },
    {
      "inputs": [],
      "name": "displayWidthHeight",
      "outputs": [
        {
          "internalType": "uint256",
          "name": "",
          "type": "uint256"
        },
        {
          "internalType": "uint256",
          "name": "",
          "type": "uint256"
        }
      ],
      "stateMutability": "view",
      "type": "function",
      "constant": true
    }
  ],
  "bytecode": "0x608060405234801561001057600080fd5b506040516105d03803806105d083398181016040528101906100329190610096565b8383816000819055508060018190555050508160028190555080600381905550505050506100fd565b600080fd5b6000819050919050565b61007381610060565b811461007e57600080fd5b50565b6000815190506100908161006a565b92915050565b600080600080608085870312156100b0576100af61005b565b5b60006100be87828801610081565b94505060206100cf87828801610081565b93505060406100e087828801610081565b92505060606100f187828801610081565b91505092959194509250565b6104c48061010c6000396000f3fe608060405234801561001057600080fd5b50600436106100935760003560e01c80634d41892f116100665780634d41892f1461010f57806376a9d41c1461012d5780639ededf771461014b578063a56dfe4a14610169578063b63684911461018757610093565b80630867408f146100985780630c55699c146100b45780630ef26743146100d257806331501a7a146100f0575b600080fd5b6100b260048036038101906100ad91906102a4565b6101a6565b005b6100bc6101db565b6040516100c991906102f3565b60405180910390f35b6100da6101e1565b6040516100e791906102f3565b60405180910390f35b6100f86101e7565b60405161010692919061030e565b60405180910390f35b6101176101f8565b60405161012491906102f3565b60405180910390f35b61013561020f565b60405161014291906103c7565b60405180910390f35b61015361024c565b60405161016091906102f3565b60405180910390f35b610171610252565b60405161017e91906102f3565b60405180910390f35b61018f610258565b60405161019d92919061030e565b60405180910390f35b816000808282546101b79190610418565b9250508190555080600160008282546101d09190610418565b925050819055505050565b60005481565b60035481565b600080600254600354915091509091565b600060035460025461020a919061044c565b905090565b60606040518060400160405280601481526020017f4a65207375697320756e2072656374616e676c65000000000000000000000000815250905090565b60025481565b60015481565b600080600054600154915091509091565b600080fd5b6000819050919050565b6102818161026e565b811461028c57600080fd5b50565b60008135905061029e81610278565b92915050565b600080604083850312156102bb576102ba610269565b5b60006102c98582860161028f565b92505060206102da8582860161028f565b9150509250929050565b6102ed8161026e565b82525050565b600060208201905061030860008301846102e4565b92915050565b600060408201905061032360008301856102e4565b61033060208301846102e4565b9392505050565b600081519050919050565b600082825260208201905092915050565b60005b83811015610371578082015181840152602081019050610356565b60008484015250505050565b6000601f19601f8301169050919050565b600061039982610337565b6103a38185610342565b93506103b3818560208601610353565b6103bc8161037d565b840191505092915050565b600060208201905081810360008301526103e1818461038e565b905092915050565b7f4e487b7100000000000000000000000000000000000000000000000000000000600052601160045260246000fd5b60006104238261026e565b915061042e8361026e565b9250828201905080821115610446576104456103e9565b5b92915050565b60006104578261026e565b91506104628361026e565b92508282026104708161026e565b91508282048414831517610487576104866103e9565b5b509291505056fea26469706673582212201633d188959bf12dc68ea8f26cebcfd26c277d0b3727543f07699170d2369dde64736f6c63430008130033",
  "immutableReferences": {},
  "source": "// SPDX-License-Identifier: MIT\npragma solidity >=0.4.22 <0.9.0;\nimport \"./Form.sol\";\n\ncontract Rectangle is Form {\n  uint public width;\n  uint public height;\n  \n  constructor(uint _x, uint _y, uint _width, uint _height) Form(_x, _y) {\n    width = _width;\n    height = _height;\n  }\n\n  function area() public view override returns (uint){\n    return width * height;\n  }\n  \n  function displayInfo() public pure override returns (string memory){\n    return \"Je suis un rectangle\";\n  }\n\n  function displayWidthHeight() public view returns (uint, uint){\n    return (width, height);\n  }\n\n\n}\n",
  "sourcePath": "D:\\ILIA\\S4\\PROJECTS\\DAPP\\contracts\\Rectangle.sol",
  "compiler": {
    "name": "solc",
    "version": "0.8.19+commit.7dd6d404.Emscripten.clang"
  },
  "schemaVersion": "3.4.16",
  "updatedAt": "2026-06-08T22:15:32.986Z",
  "networkType": "ethereum",
  "devdoc": {
    "kind": "dev",
    "methods": {},
    "version": 1
  },
  "userdoc": {
    "kind": "user",
    "methods": {},
    "version": 1
  }
}