{
  "contractName": "Addition",
  "abi": [
    {
      "inputs": [
        {
          "internalType": "uint256",
          "name": "_a",
          "type": "uint256"
        }
      ],
      "name": "setA",
      "outputs": [],
      "stateMutability": "nonpayable",
      "type": "function"
    },
    {
      "inputs": [
        {
          "internalType": "uint256",
          "name": "_b",
          "type": "uint256"
        }
      ],
      "name": "setB",
      "outputs": [],
      "stateMutability": "nonpayable",
      "type": "function"
    },
    {
      "inputs": [],
      "name": "addition1",
      "outputs": [
        {
          "internalType": "uint256",
          "name": "",
          "type": "uint256"
        }
      ],
      "stateMutability": "view",
      "type": "function",
      "constant": true
    },
    {
      "inputs": [
        {
          "internalType": "uint256",
          "name": "_a",
          "type": "uint256"
        },
        {
          "internalType": "uint256",
          "name": "_b",
          "type": "uint256"
        }
      ],
      "name": "addition2",
      "outputs": [
        {
          "internalType": "uint256",
          "name": "",
          "type": "uint256"
        }
      ],
      "stateMutability": "pure",
      "type": "function",
      "constant": true
    }
  ],
  "bytecode": "0x608060405234801561001057600080fd5b50610283806100206000396000f3fe608060405234801561001057600080fd5b506004361061004c5760003560e01c806309cdcf9b146100515780634d3e46e41461006d578063ee919d501461008b578063f1d16438146100a7575b600080fd5b61006b60048036038101906100669190610153565b6100d7565b005b6100756100e1565b604051610082919061018f565b60405180910390f35b6100a560048036038101906100a09190610153565b6100f8565b005b6100c160048036038101906100bc91906101aa565b610102565b6040516100ce919061018f565b60405180910390f35b8060018190555050565b60006001546000546100f39190610219565b905090565b8060008190555050565b600081836101109190610219565b905092915050565b600080fd5b6000819050919050565b6101308161011d565b811461013b57600080fd5b50565b60008135905061014d81610127565b92915050565b60006020828403121561016957610168610118565b5b60006101778482850161013e565b91505092915050565b6101898161011d565b82525050565b60006020820190506101a46000830184610180565b92915050565b600080604083850312156101c1576101c0610118565b5b60006101cf8582860161013e565b92505060206101e08582860161013e565b9150509250929050565b7f4e487b7100000000000000000000000000000000000000000000000000000000600052601160045260246000fd5b60006102248261011d565b915061022f8361011d565b9250828201905080821115610247576102466101ea565b5b9291505056fea2646970667358221220c8394b7c36d46e7128378ba8b60cfaa148984886f2a1628e28d220ebc8689dc164736f6c63430008130033",
  "immutableReferences": {},
  "source": "// SPDX-License-Identifier: MIT\npragma solidity >=0.4.22 <0.9.0;\n\ncontract Addition {\n  uint a;\n  uint b;\n\n  function setA(uint _a) public {\n    a = _a;\n  }\n\n  function setB(uint _b) public {\n    b = _b;\n  }\n\n  function addition1() public view returns (uint) {\n    return a + b;\n  }\n\n  function addition2(uint _a, uint _b) public pure returns (uint){\n    return _a +_b;\n  }\n\n  \n}\n",
  "sourcePath": "D:\\ILIA\\S4\\PROJECTS\\DAPP\\contracts\\Addition.sol",
  "compiler": {
    "name": "solc",
    "version": "0.8.19+commit.7dd6d404.Emscripten.clang"
  },
  "schemaVersion": "3.4.16",
  "updatedAt": "2026-05-29T20:16:21.979Z",
  "networkType": "ethereum",
  "devdoc": {
    "kind": "dev",
    "methods": {},
    "version": 1
  },
  "userdoc": {
    "kind": "user",
    "methods": {},
    "version": 1
  }
}