{
  "contractName": "ArrayManagment",
  "abi": [
    {
      "inputs": [],
      "stateMutability": "nonpayable",
      "type": "constructor"
    },
    {
      "inputs": [
        {
          "internalType": "uint256",
          "name": "",
          "type": "uint256"
        }
      ],
      "name": "numbers",
      "outputs": [
        {
          "internalType": "uint256",
          "name": "",
          "type": "uint256"
        }
      ],
      "stateMutability": "view",
      "type": "function",
      "constant": true
    },
    {
      "inputs": [
        {
          "internalType": "uint256",
          "name": "_number",
          "type": "uint256"
        }
      ],
      "name": "addNumber",
      "outputs": [],
      "stateMutability": "nonpayable",
      "type": "function"
    },
    {
      "inputs": [
        {
          "internalType": "uint256",
          "name": "_index",
          "type": "uint256"
        }
      ],
      "name": "getElement",
      "outputs": [
        {
          "internalType": "uint256",
          "name": "",
          "type": "uint256"
        }
      ],
      "stateMutability": "view",
      "type": "function",
      "constant": true
    },
    {
      "inputs": [],
      "name": "displayArray",
      "outputs": [
        {
          "internalType": "uint256[]",
          "name": "",
          "type": "uint256[]"
        }
      ],
      "stateMutability": "view",
      "type": "function",
      "constant": true
    },
    {
      "inputs": [],
      "name": "sum",
      "outputs": [
        {
          "internalType": "uint256",
          "name": "",
          "type": "uint256"
        }
      ],
      "stateMutability": "view",
      "type": "function",
      "constant": true
    }
  ],
  "bytecode": "0x608060405234801561001057600080fd5b50600060059080600181540180825580915050600190039060005260206000200160009091909190915055600060139080600181540180825580915050600190039060005260206000200160009091909190915055600060019080600181540180825580915050600190039060005260206000200160009091909190915055600060029080600181540180825580915050600190039060005260206000200160009091909190915055610587806100c86000396000f3fe608060405234801561001057600080fd5b50600436106100575760003560e01c80633a7d22bc1461005c578063853255cc1461008c578063bccd33b9146100aa578063d39fa233146100c8578063fce68023146100f8575b600080fd5b610076600480360381019061007191906102c3565b610114565b60405161008391906102ff565b60405180910390f35b610094610182565b6040516100a191906102ff565b60405180910390f35b6100b26101e0565b6040516100bf91906103d8565b60405180910390f35b6100e260048036038101906100dd91906102c3565b610238565b6040516100ef91906102ff565b60405180910390f35b610112600480360381019061010d91906102c3565b61025c565b005b60008080549050821061015c576040517f08c379a000000000000000000000000000000000000000000000000000000000815260040161015390610457565b60405180910390fd5b600082815481106101705761016f610477565b5b90600052602060002001549050919050565b6000806000905060005b6000805490508110156101d857600081815481106101ad576101ac610477565b5b9060005260206000200154826101c391906104d5565b915080806101d090610509565b91505061018c565b508091505090565b6060600080548060200260200160405190810160405280929190818152602001828054801561022e57602002820191906000526020600020905b81548152602001906001019080831161021a575b5050505050905090565b6000818154811061024857600080fd5b906000526020600020016000915090505481565b600081908060018154018082558091505060019003906000526020600020016000909190919091505550565b600080fd5b6000819050919050565b6102a08161028d565b81146102ab57600080fd5b50565b6000813590506102bd81610297565b92915050565b6000602082840312156102d9576102d8610288565b5b60006102e7848285016102ae565b91505092915050565b6102f98161028d565b82525050565b600060208201905061031460008301846102f0565b92915050565b600081519050919050565b600082825260208201905092915050565b6000819050602082019050919050565b61034f8161028d565b82525050565b60006103618383610346565b60208301905092915050565b6000602082019050919050565b60006103858261031a565b61038f8185610325565b935061039a83610336565b8060005b838110156103cb5781516103b28882610355565b97506103bd8361036d565b92505060018101905061039e565b5085935050505092915050565b600060208201905081810360008301526103f2818461037a565b905092915050565b600082825260208201905092915050565b7f496e646578206e6f742065786973747300000000000000000000000000000000600082015250565b60006104416010836103fa565b915061044c8261040b565b602082019050919050565b6000602082019050818103600083015261047081610434565b9050919050565b7f4e487b7100000000000000000000000000000000000000000000000000000000600052603260045260246000fd5b7f4e487b7100000000000000000000000000000000000000000000000000000000600052601160045260246000fd5b60006104e08261028d565b91506104eb8361028d565b9250828201905080821115610503576105026104a6565b5b92915050565b60006105148261028d565b91507fffffffffffffffffffffffffffffffffffffffffffffffffffffffffffffffff8203610546576105456104a6565b5b60018201905091905056fea2646970667358221220956bf73ae4d37d363488927123da61760ef80b2a146f2ef6ef2490be9effab1e64736f6c63430008130033",
  "immutableReferences": {},
  "source": "// SPDX-License-Identifier: MIT\npragma solidity >=0.4.22 <0.9.0;\n\ncontract ArrayManagment {\n  uint [] public numbers;  \n\n  constructor() {\n    numbers.push(5);\n    numbers.push(19);\n    numbers.push(1);\n    numbers.push(2);\n  }\n\n  function addNumber(uint _number) public{\n    numbers.push(_number);\n  }\n\n  function getElement(uint _index) public view returns(uint){\n    require(_index < numbers.length, \"Index not exists\");\n    return numbers[_index];\n  }\n\n  function displayArray() public view returns(uint [] memory){\n    return numbers;\n  }\n\n  function sum() public view returns (uint){\n    uint total = 0;\n    for (uint i=0; i < numbers.length; i++){\n      total += numbers[i];\n    }\n    return total;\n  }\n\n  \n}\n",
  "sourcePath": "D:\\ILIA\\S4\\PROJECTS\\DAPP\\contracts\\ArrayManagment.sol",
  "compiler": {
    "name": "solc",
    "version": "0.8.19+commit.7dd6d404.Emscripten.clang"
  },
  "schemaVersion": "3.4.16",
  "updatedAt": "2026-05-29T20:16:22.416Z",
  "networkType": "ethereum",
  "devdoc": {
    "kind": "dev",
    "methods": {},
    "version": 1
  },
  "userdoc": {
    "kind": "user",
    "methods": {},
    "version": 1
  }
}