{
  "contractName": "StringsManagment",
  "abi": [
    {
      "inputs": [
        {
          "internalType": "string",
          "name": "_message",
          "type": "string"
        }
      ],
      "name": "setMessage",
      "outputs": [],
      "stateMutability": "nonpayable",
      "type": "function"
    },
    {
      "inputs": [],
      "name": "getMessage",
      "outputs": [
        {
          "internalType": "string",
          "name": "",
          "type": "string"
        }
      ],
      "stateMutability": "view",
      "type": "function",
      "constant": true
    },
    {
      "inputs": [
        {
          "internalType": "string",
          "name": "_message1",
          "type": "string"
        },
        {
          "internalType": "string",
          "name": "_message2",
          "type": "string"
        }
      ],
      "name": "concat",
      "outputs": [
        {
          "internalType": "string",
          "name": "",
          "type": "string"
        }
      ],
      "stateMutability": "pure",
      "type": "function",
      "constant": true
    },
    {
      "inputs": [
        {
          "internalType": "string",
          "name": "_paramMessage",
          "type": "string"
        }
      ],
      "name": "concatWith",
      "outputs": [
        {
          "internalType": "string",
          "name": "",
          "type": "string"
        }
      ],
      "stateMutability": "view",
      "type": "function",
      "constant": true
    },
    {
      "inputs": [
        {
          "internalType": "string",
          "name": "_message",
          "type": "string"
        }
      ],
      "name": "messageLength",
      "outputs": [
        {
          "internalType": "uint256",
          "name": "",
          "type": "uint256"
        }
      ],
      "stateMutability": "pure",
      "type": "function",
      "constant": true
    },
    {
      "inputs": [
        {
          "internalType": "string",
          "name": "_message1",
          "type": "string"
        },
        {
          "internalType": "string",
          "name": "_message2",
          "type": "string"
        }
      ],
      "name": "compare",
      "outputs": [
        {
          "internalType": "bool",
          "name": "",
          "type": "bool"
        }
      ],
      "stateMutability": "pure",
      "type": "function",
      "constant": true
    }
  ],
  "bytecode": "0x608060405234801561001057600080fd5b50610a09806100206000396000f3fe608060405234801561001057600080fd5b50600436106100625760003560e01c8063368b8772146100675780633a96fdd7146100835780635c82333b146100b357806382350086146100e357806389c19ddb14610113578063ce6d41de14610143575b600080fd5b610081600480360381019061007c91906103de565b610161565b005b61009d60048036038101906100989190610427565b610174565b6040516100aa91906104ba565b60405180910390f35b6100cd60048036038101906100c891906103de565b61018f565b6040516100da91906104ee565b60405180910390f35b6100fd60048036038101906100f891906103de565b61019a565b60405161010a9190610588565b60405180910390f35b61012d60048036038101906101289190610427565b6101c6565b60405161013a9190610588565b60405180910390f35b61014b6101f2565b6040516101589190610588565b60405180910390f35b806000908161017091906107b6565b5050565b60008180519060200120838051906020012014905092915050565b600081519050919050565b60606000826040516020016101b092919061096d565b6040516020818303038152906040529050919050565b606082826040516020016101db9291906109a0565b604051602081830303815290604052905092915050565b606060008054610201906105d9565b80601f016020809104026020016040519081016040528092919081815260200182805461022d906105d9565b801561027a5780601f1061024f5761010080835404028352916020019161027a565b820191906000526020600020905b81548152906001019060200180831161025d57829003601f168201915b5050505050905090565b6000604051905090565b600080fd5b600080fd5b600080fd5b600080fd5b6000601f19601f8301169050919050565b7f4e487b7100000000000000000000000000000000000000000000000000000000600052604160045260246000fd5b6102eb826102a2565b810181811067ffffffffffffffff8211171561030a576103096102b3565b5b80604052505050565b600061031d610284565b905061032982826102e2565b919050565b600067ffffffffffffffff821115610349576103486102b3565b5b610352826102a2565b9050602081019050919050565b82818337600083830152505050565b600061038161037c8461032e565b610313565b90508281526020810184848401111561039d5761039c61029d565b5b6103a884828561035f565b509392505050565b600082601f8301126103c5576103c4610298565b5b81356103d584826020860161036e565b91505092915050565b6000602082840312156103f4576103f361028e565b5b600082013567ffffffffffffffff81111561041257610411610293565b5b61041e848285016103b0565b91505092915050565b6000806040838503121561043e5761043d61028e565b5b600083013567ffffffffffffffff81111561045c5761045b610293565b5b610468858286016103b0565b925050602083013567ffffffffffffffff81111561048957610488610293565b5b610495858286016103b0565b9150509250929050565b60008115159050919050565b6104b48161049f565b82525050565b60006020820190506104cf60008301846104ab565b92915050565b6000819050919050565b6104e8816104d5565b82525050565b600060208201905061050360008301846104df565b92915050565b600081519050919050565b600082825260208201905092915050565b60005b83811015610543578082015181840152602081019050610528565b60008484015250505050565b600061055a82610509565b6105648185610514565b9350610574818560208601610525565b61057d816102a2565b840191505092915050565b600060208201905081810360008301526105a2818461054f565b905092915050565b7f4e487b7100000000000000000000000000000000000000000000000000000000600052602260045260246000fd5b600060028204905060018216806105f157607f821691505b602082108103610604576106036105aa565b5b50919050565b60008190508160005260206000209050919050565b60006020601f8301049050919050565b600082821b905092915050565b60006008830261066c7fffffffffffffffffffffffffffffffffffffffffffffffffffffffffffffffff8261062f565b610676868361062f565b95508019841693508086168417925050509392505050565b6000819050919050565b60006106b36106ae6106a9846104d5565b61068e565b6104d5565b9050919050565b6000819050919050565b6106cd83610698565b6106e16106d9826106ba565b84845461063c565b825550505050565b600090565b6106f66106e9565b6107018184846106c4565b505050565b5b818110156107255761071a6000826106ee565b600181019050610707565b5050565b601f82111561076a5761073b8161060a565b6107448461061f565b81016020851015610753578190505b61076761075f8561061f565b830182610706565b50505b505050565b600082821c905092915050565b600061078d6000198460080261076f565b1980831691505092915050565b60006107a6838361077c565b9150826002028217905092915050565b6107bf82610509565b67ffffffffffffffff8111156107d8576107d76102b3565b5b6107e282546105d9565b6107ed828285610729565b600060209050601f831160018114610820576000841561080e578287015190505b610818858261079a565b865550610880565b601f19841661082e8661060a565b60005b8281101561085657848901518255600182019150602085019450602081019050610831565b86831015610873578489015161086f601f89168261077c565b8355505b6001600288020188555050505b505050505050565b600081905092915050565b600081546108a0816105d9565b6108aa8186610888565b945060018216600081146108c557600181146108da5761090d565b60ff198316865281151582028601935061090d565b6108e38561060a565b60005b83811015610905578154818901526001820191506020810190506108e6565b838801955050505b50505092915050565b7f2000000000000000000000000000000000000000000000000000000000000000815250565b600061094782610509565b6109518185610888565b9350610961818560208601610525565b80840191505092915050565b60006109798285610893565b915061098482610916565b600182019150610994828461093c565b91508190509392505050565b60006109ac828561093c565b91506109b782610916565b6001820191506109c7828461093c565b9150819050939250505056fea264697066735822122083f5d3f5d3a984e773b97d355d8314375b8306d4889185fec7679f456922196e64736f6c63430008130033",
  "immutableReferences": {},
  "source": "// SPDX-License-Identifier: MIT\npragma solidity >=0.4.22 <0.9.0;\n\ncontract StringsManagment {\n  string message;\n\n  function setMessage(string memory _message) public {\n    message = _message;\n  }\n\n  function getMessage() public view returns (string memory){\n    return message;\n  }\n\n  function concat(string memory _message1, string memory _message2) public pure returns (string memory){\n    return string.concat(_message1, \" \", _message2);\n  }\n\n  function concatWith(string memory _paramMessage) public view returns (string memory){\n    return string.concat(message, \" \", _paramMessage);\n  }\n\n  function messageLength(string memory _message) public pure returns (uint){\n    return bytes(_message).length;\n  }\n\n  function compare(string memory _message1, string memory _message2) public pure returns (bool){\n    return keccak256(bytes(_message1)) == keccak256(bytes(_message2));\n  }\n\n}\n",
  "sourcePath": "D:\\ILIA\\S4\\PROJECTS\\DAPP\\contracts\\StringsManagment.sol",
  "compiler": {
    "name": "solc",
    "version": "0.8.19+commit.7dd6d404.Emscripten.clang"
  },
  "schemaVersion": "3.4.16",
  "updatedAt": "2026-05-29T20:16:22.149Z",
  "networkType": "ethereum",
  "devdoc": {
    "kind": "dev",
    "methods": {},
    "version": 1
  },
  "userdoc": {
    "kind": "user",
    "methods": {},
    "version": 1
  }
}